{
  "contractName": "SupplyChain",
  "abi": [
    {
      "anonymous": false,
      "inputs": [
        {
          "indexed": false,
          "internalType": "uint256",
          "name": "index",
          "type": "uint256"
        },
        {
          "indexed": true,
          "internalType": "address",
          "name": "supplier",
          "type": "address"
        },
        {
          "indexed": true,
          "internalType": "address",
          "name": "delCompany",
          "type": "address"
        }
      ],
      "name": "OrderAccepted",
      "type": "event"
    },
    {
      "anonymous": false,
      "inputs": [
        {
          "indexed": false,
          "internalType": "uint256",
          "name": "index",
          "type": "uint256"
        },
        {
          "indexed": true,
          "internalType": "address",
          "name": "delCompany",
          "type": "address"
        },
        {
          "indexed": true,
          "internalType": "address",
          "name": "customer",
          "type": "address"
        }
      ],
      "name": "OrderCreated",
      "type": "event"
    },
    {
      "anonymous": false,
      "inputs": [
        {
          "indexed": false,
          "internalType": "uint256",
          "name": "index",
          "type": "uint256"
        },
        {
          "indexed": true,
          "internalType": "address",
          "name": "supplier",
          "type": "address"
        },
        {
          "indexed": true,
          "internalType": "address",
          "name": "delCompany",
          "type": "address"
        }
      ],
      "name": "OrderDeclined",
      "type": "event"
    },
    {
      "anonymous": false,
      "inputs": [
        {
          "indexed": false,
          "internalType": "uint256",
          "name": "index",
          "type": "uint256"
        },
        {
          "indexed": true,
          "internalType": "address",
          "name": "supplier",
          "type": "address"
        },
        {
          "indexed": true,
          "internalType": "address",
          "name": "customer",
          "type": "address"
        }
      ],
      "name": "OrderDelivered",
      "type": "event"
    },
    {
      "anonymous": false,
      "inputs": [
        {
          "indexed": false,
          "internalType": "uint256",
          "name": "index",
          "type": "uint256"
        },
        {
          "indexed": true,
          "internalType": "address",
          "name": "supplier",
          "type": "address"
        },
        {
          "indexed": true,
          "internalType": "address",
          "name": "customer",
          "type": "address"
        }
      ],
      "name": "OrderDelivering",
      "type": "event"
    },
    {
      "inputs": [
        {
          "internalType": "address",
          "name": "",
          "type": "address"
        },
        {
          "internalType": "uint256",
          "name": "",
          "type": "uint256"
        }
      ],
      "name": "selfOrders",
      "outputs": [
        {
          "internalType": "uint256",
          "name": "",
          "type": "uint256"
        }
      ],
      "stateMutability": "view",
      "type": "function",
      "constant": true
    },
    {
      "inputs": [],
      "name": "getOrdersLength",
      "outputs": [
        {
          "internalType": "uint256",
          "name": "",
          "type": "uint256"
        }
      ],
      "stateMutability": "view",
      "type": "function",
      "constant": true
    },
    {
      "inputs": [
        {
          "internalType": "uint256",
          "name": "_index",
          "type": "uint256"
        }
      ],
      "name": "getOrder",
      "outputs": [
        {
          "internalType": "string",
          "name": "title",
          "type": "string"
        },
        {
          "internalType": "string",
          "name": "desc",
          "type": "string"
        },
        {
          "internalType": "address",
          "name": "",
          "type": "address"
        },
        {
          "internalType": "address",
          "name": "",
          "type": "address"
        },
        {
          "internalType": "address",
          "name": "",
          "type": "address"
        },
        {
          "internalType": "enum SupplyChain.Status",
          "name": "",
          "type": "uint8"
        }
      ],
      "stateMutability": "view",
      "type": "function",
      "constant": true
    },
    {
      "inputs": [
        {
          "internalType": "address",
          "name": "_address",
          "type": "address"
        }
      ],
      "name": "getSelfOrdersLength",
      "outputs": [
        {
          "internalType": "uint256",
          "name": "",
          "type": "uint256"
        }
      ],
      "stateMutability": "view",
      "type": "function",
      "constant": true
    },
    {
      "inputs": [
        {
          "internalType": "string",
          "name": "_title",
          "type": "string"
        },
        {
          "internalType": "string",
          "name": "_desc",
          "type": "string"
        },
        {
          "internalType": "address",
          "name": "_delCompany",
          "type": "address"
        },
        {
          "internalType": "address",
          "name": "_customer",
          "type": "address"
        }
      ],
      "name": "createOrder",
      "outputs": [
        {
          "internalType": "uint256",
          "name": "",
          "type": "uint256"
        }
      ],
      "stateMutability": "nonpayable",
      "type": "function"
    },
    {
      "inputs": [
        {
          "internalType": "uint256",
          "name": "_index",
          "type": "uint256"
        }
      ],
      "name": "startDeliveringOrder",
      "outputs": [],
      "stateMutability": "nonpayable",
      "type": "function"
    },
    {
      "inputs": [
        {
          "internalType": "uint256",
          "name": "_index",
          "type": "uint256"
        }
      ],
      "name": "stopDeliveringOrder",
      "outputs": [],
      "stateMutability": "nonpayable",
      "type": "function"
    },
    {
      "inputs": [
        {
          "internalType": "uint256",
          "name": "_index",
          "type": "uint256"
        }
      ],
      "name": "acceptOrder",
      "outputs": [],
      "stateMutability": "nonpayable",
      "type": "function"
    },
    {
      "inputs": [
        {
          "internalType": "uint256",
          "name": "_index",
          "type": "uint256"
        }
      ],
      "name": "declineOrder",
      "outputs": [],
      "stateMutability": "nonpayable",
      "type": "function"
    }
  ],
  "bytecode": "0x608060405234801561001057600080fd5b50611858806100206000396000f3fe608060405234801561001057600080fd5b50600436106100935760003560e01c8063a9d1af8811610066578063a9d1af881461011e578063aa6e2a721461014e578063ccbdb85c1461017e578063d09ef2411461019a578063ef18e9ed146101cf57610093565b806307c2e16c146100985780633ad14ed2146100b65780636c484042146100e657806384e9d53814610102575b600080fd5b6100a06101eb565b6040516100ad9190611069565b60405180910390f35b6100d060048036038101906100cb91906110f6565b6101f7565b6040516100dd9190611069565b60405180910390f35b61010060048036038101906100fb919061114f565b610243565b005b61011c6004803603810190610117919061114f565b6103c5565b005b6101386004803603810190610133919061117c565b6105ac565b6040516101459190611069565b60405180910390f35b61016860048036038101906101639190611302565b6105dd565b6040516101759190611069565b60405180910390f35b6101986004803603810190610193919061114f565b610972565b005b6101b460048036038101906101af919061114f565b610b7a565b6040516101c6969594939291906114a6565b60405180910390f35b6101e960048036038101906101e4919061114f565b610e48565b005b60008080549050905090565b6000600160008373ffffffffffffffffffffffffffffffffffffffff1673ffffffffffffffffffffffffffffffffffffffff168152602001908152602001600020805490509050919050565b803373ffffffffffffffffffffffffffffffffffffffff166000828154811061026f5761026e611515565b5b906000526020600020906005020160030160009054906101000a900473ffffffffffffffffffffffffffffffffffffffff1673ffffffffffffffffffffffffffffffffffffffff16146102c157600080fd5b60008083815481106102d6576102d5611515565b5b906000526020600020906005020190508060040160009054906101000a900473ffffffffffffffffffffffffffffffffffffffff1673ffffffffffffffffffffffffffffffffffffffff168160020160009054906101000a900473ffffffffffffffffffffffffffffffffffffffff1673ffffffffffffffffffffffffffffffffffffffff167fdc1e5c46473f967c85111ae5c5574dd672193f524398a75ee01ff59586c224a68560405161038b9190611069565b60405180910390a360028160040160146101000a81548160ff021916908360048111156103bb576103ba61142f565b5b0217905550505050565b803373ffffffffffffffffffffffffffffffffffffffff16600082815481106103f1576103f0611515565b5b906000526020600020906005020160030160009054906101000a900473ffffffffffffffffffffffffffffffffffffffff1673ffffffffffffffffffffffffffffffffffffffff161461044357600080fd5b81600060048111156104585761045761142f565b5b6000828154811061046c5761046b611515565b5b906000526020600020906005020160040160149054906101000a900460ff16600481111561049d5761049c61142f565b5b146104a757600080fd5b60008084815481106104bc576104bb611515565b5b906000526020600020906005020190508060040160009054906101000a900473ffffffffffffffffffffffffffffffffffffffff1673ffffffffffffffffffffffffffffffffffffffff168160020160009054906101000a900473ffffffffffffffffffffffffffffffffffffffff1673ffffffffffffffffffffffffffffffffffffffff167f8f3a13f55e685e5c9e7796435daa54d081fdc930d7079309a7b178fc4fb3cc2f866040516105719190611069565b60405180910390a360018160040160146101000a81548160ff021916908360048111156105a1576105a061142f565b5b021790555050505050565b600160205281600052604060002081815481106105c857600080fd5b90600052602060002001600091509150505481565b6000806040518060c001604052808781526020018681526020013373ffffffffffffffffffffffffffffffffffffffff1681526020018573ffffffffffffffffffffffffffffffffffffffff1681526020018473ffffffffffffffffffffffffffffffffffffffff1681526020016000600481111561065f5761065e61142f565b5b81525090506000808054905090508373ffffffffffffffffffffffffffffffffffffffff168573ffffffffffffffffffffffffffffffffffffffff167fd4e0aaf5be9b8773c644dfebba8b63f878965712ad8589d85ca4bc9d1b671e2c6000805490506040516106cf9190611069565b60405180910390a3600082908060018154018082558091505060019003906000526020600020906005020160009091909190915060008201518160000190816107189190611750565b50602082015181600101908161072e9190611750565b5060408201518160020160006101000a81548173ffffffffffffffffffffffffffffffffffffffff021916908373ffffffffffffffffffffffffffffffffffffffff16021790555060608201518160030160006101000a81548173ffffffffffffffffffffffffffffffffffffffff021916908373ffffffffffffffffffffffffffffffffffffffff16021790555060808201518160040160006101000a81548173ffffffffffffffffffffffffffffffffffffffff021916908373ffffffffffffffffffffffffffffffffffffffff16021790555060a08201518160040160146101000a81548160ff0219169083600481111561082f5761082e61142f565b5b02179055505050600160003373ffffffffffffffffffffffffffffffffffffffff1673ffffffffffffffffffffffffffffffffffffffff168152602001908152602001600020819080600181540180825580915050600190039060005260206000200160009091909190915055600160008673ffffffffffffffffffffffffffffffffffffffff1673ffffffffffffffffffffffffffffffffffffffff168152602001908152602001600020819080600181540180825580915050600190039060005260206000200160009091909190915055600160008573ffffffffffffffffffffffffffffffffffffffff1673ffffffffffffffffffffffffffffffffffffffff1681526020019081526020016000208190806001815401808255809150506001900390600052602060002001600090919091909150555050949350505050565b803373ffffffffffffffffffffffffffffffffffffffff166000828154811061099e5761099d611515565b5b906000526020600020906005020160040160009054906101000a900473ffffffffffffffffffffffffffffffffffffffff1673ffffffffffffffffffffffffffffffffffffffff16146109f057600080fd5b8160026004811115610a0557610a0461142f565b5b60008281548110610a1957610a18611515565b5b906000526020600020906005020160040160149054906101000a900460ff166004811115610a4a57610a4961142f565b5b14610a5457600080fd5b6000808481548110610a6957610a68611515565b5b906000526020600020906005020190508060030160009054906101000a900473ffffffffffffffffffffffffffffffffffffffff1673ffffffffffffffffffffffffffffffffffffffff168160020160009054906101000a900473ffffffffffffffffffffffffffffffffffffffff1673ffffffffffffffffffffffffffffffffffffffff167fb8233a4535381de2b5df1795d3af5bfec3ce5afc185a31949f27b49938cb232186604051610b1e9190611069565b60405180910390a3600460008581548110610b3c57610b3b611515565b5b906000526020600020906005020160040160146101000a81548160ff02191690836004811115610b6f57610b6e61142f565b5b021790555050505050565b6060806000806000806000808881548110610b9857610b97611515565b5b90600052602060002090600502016040518060c0016040529081600082018054610bc190611573565b80601f0160208091040260200160405190810160405280929190818152602001828054610bed90611573565b8015610c3a5780601f10610c0f57610100808354040283529160200191610c3a565b820191906000526020600020905b815481529060010190602001808311610c1d57829003601f168201915b50505050508152602001600182018054610c5390611573565b80601f0160208091040260200160405190810160405280929190818152602001828054610c7f90611573565b8015610ccc5780601f10610ca157610100808354040283529160200191610ccc565b820191906000526020600020905b815481529060010190602001808311610caf57829003601f168201915b505050505081526020016002820160009054906101000a900473ffffffffffffffffffffffffffffffffffffffff1673ffffffffffffffffffffffffffffffffffffffff1673ffffffffffffffffffffffffffffffffffffffff1681526020016003820160009054906101000a900473ffffffffffffffffffffffffffffffffffffffff1673ffffffffffffffffffffffffffffffffffffffff1673ffffffffffffffffffffffffffffffffffffffff1681526020016004820160009054906101000a900473ffffffffffffffffffffffffffffffffffffffff1673ffffffffffffffffffffffffffffffffffffffff1673ffffffffffffffffffffffffffffffffffffffff1681526020016004820160149054906101000a900460ff166004811115610dfc57610dfb61142f565b5b6004811115610e0e57610e0d61142f565b5b815250509050806000015181602001518260400151836060015184608001518560a001519650965096509650965096505091939550919395565b803373ffffffffffffffffffffffffffffffffffffffff1660008281548110610e7457610e73611515565b5b906000526020600020906005020160040160009054906101000a900473ffffffffffffffffffffffffffffffffffffffff1673ffffffffffffffffffffffffffffffffffffffff1614610ec657600080fd5b8160026004811115610edb57610eda61142f565b5b60008281548110610eef57610eee611515565b5b906000526020600020906005020160040160149054906101000a900460ff166004811115610f2057610f1f61142f565b5b14610f2a57600080fd5b6000808481548110610f3f57610f3e611515565b5b906000526020600020906005020190508060030160009054906101000a900473ffffffffffffffffffffffffffffffffffffffff1673ffffffffffffffffffffffffffffffffffffffff168160020160009054906101000a900473ffffffffffffffffffffffffffffffffffffffff1673ffffffffffffffffffffffffffffffffffffffff167f8ae2f67332c70e85a9bd2dc029a84b58b0e0b37eed94bb01fe19283e259f859286604051610ff49190611069565b60405180910390a360036000858154811061101257611011611515565b5b906000526020600020906005020160040160146101000a81548160ff021916908360048111156110455761104461142f565b5b021790555050505050565b6000819050919050565b61106381611050565b82525050565b600060208201905061107e600083018461105a565b92915050565b6000604051905090565b600080fd5b600080fd5b600073ffffffffffffffffffffffffffffffffffffffff82169050919050565b60006110c382611098565b9050919050565b6110d3816110b8565b81146110de57600080fd5b50565b6000813590506110f0816110ca565b92915050565b60006020828403121561110c5761110b61108e565b5b600061111a848285016110e1565b91505092915050565b61112c81611050565b811461113757600080fd5b50565b60008135905061114981611123565b92915050565b6000602082840312156111655761116461108e565b5b60006111738482850161113a565b91505092915050565b600080604083850312156111935761119261108e565b5b60006111a1858286016110e1565b92505060206111b28582860161113a565b9150509250929050565b600080fd5b600080fd5b6000601f19601f8301169050919050565b7f4e487b7100000000000000000000000000000000000000000000000000000000600052604160045260246000fd5b61120f826111c6565b810181811067ffffffffffffffff8211171561122e5761122d6111d7565b5b80604052505050565b6000611241611084565b905061124d8282611206565b919050565b600067ffffffffffffffff82111561126d5761126c6111d7565b5b611276826111c6565b9050602081019050919050565b82818337600083830152505050565b60006112a56112a084611252565b611237565b9050828152602081018484840111156112c1576112c06111c1565b5b6112cc848285611283565b509392505050565b600082601f8301126112e9576112e86111bc565b5b81356112f9848260208601611292565b91505092915050565b6000806000806080858703121561131c5761131b61108e565b5b600085013567ffffffffffffffff81111561133a57611339611093565b5b611346878288016112d4565b945050602085013567ffffffffffffffff81111561136757611366611093565b5b611373878288016112d4565b9350506040611384878288016110e1565b9250506060611395878288016110e1565b91505092959194509250565b600081519050919050565b600082825260208201905092915050565b60005b838110156113db5780820151818401526020810190506113c0565b60008484015250505050565b60006113f2826113a1565b6113fc81856113ac565b935061140c8185602086016113bd565b611415816111c6565b840191505092915050565b611429816110b8565b82525050565b7f4e487b7100000000000000000000000000000000000000000000000000000000600052602160045260246000fd5b6005811061146f5761146e61142f565b5b50565b60008190506114808261145e565b919050565b600061149082611472565b9050919050565b6114a081611485565b82525050565b600060c08201905081810360008301526114c081896113e7565b905081810360208301526114d481886113e7565b90506114e36040830187611420565b6114f06060830186611420565b6114fd6080830185611420565b61150a60a0830184611497565b979650505050505050565b7f4e487b7100000000000000000000000000000000000000000000000000000000600052603260045260246000fd5b7f4e487b7100000000000000000000000000000000000000000000000000000000600052602260045260246000fd5b6000600282049050600182168061158b57607f821691505b60208210810361159e5761159d611544565b5b50919050565b60008190508160005260206000209050919050565b60006020601f8301049050919050565b600082821b905092915050565b6000600883026116067fffffffffffffffffffffffffffffffffffffffffffffffffffffffffffffffff826115c9565b61161086836115c9565b95508019841693508086168417925050509392505050565b6000819050919050565b600061164d61164861164384611050565b611628565b611050565b9050919050565b6000819050919050565b61166783611632565b61167b61167382611654565b8484546115d6565b825550505050565b600090565b611690611683565b61169b81848461165e565b505050565b5b818110156116bf576116b4600082611688565b6001810190506116a1565b5050565b601f821115611704576116d5816115a4565b6116de846115b9565b810160208510156116ed578190505b6117016116f9856115b9565b8301826116a0565b50505b505050565b600082821c905092915050565b600061172760001984600802611709565b1980831691505092915050565b60006117408383611716565b9150826002028217905092915050565b611759826113a1565b67ffffffffffffffff811115611772576117716111d7565b5b61177c8254611573565b6117878282856116c3565b600060209050601f8311600181146117ba57600084156117a8578287015190505b6117b28582611734565b86555061181a565b601f1984166117c8866115a4565b60005b828110156117f0578489015182556001820191506020850194506020810190506117cb565b8683101561180d5784890151611809601f891682611716565b8355505b6001600288020188555050505b50505050505056fea26469706673582212205c82983e93b49e51d0b7d74fd779e585c5adab91845dc9ebba00871e33025c1964736f6c63430008110033",
  "immutableReferences": {},
  "source": "pragma solidity ^0.8.0;\r\n\r\ncontract SupplyChain{\r\n\r\n    enum Status{Created, Delivering, Delivered, Accepted, Declined}\r\n\r\n    Order[] orders;\r\n    \r\n    mapping(address => uint256[]) public selfOrders; //user can check the indexes\r\n\r\n    struct Order{\r\n        string title;\r\n        string desc;\r\n        address supplier;\r\n        address delCompany;\r\n        address customer;\r\n        Status status;\r\n    }\r\n\r\n    event OrderCreated(\r\n        uint256 index,\r\n        address indexed delCompany,\r\n        address indexed customer\r\n    );\r\n\r\n    event OrderDelivering(\r\n        uint256 index,\r\n        address indexed supplier,\r\n        address indexed customer\r\n    );\r\n\r\n    event OrderDelivered(\r\n        uint256 index,\r\n        address indexed supplier,\r\n        address indexed customer\r\n    );\r\n\r\n    event OrderAccepted(\r\n        uint256 index,\r\n        address indexed supplier,\r\n        address indexed delCompany\r\n    );\r\n\r\n    event OrderDeclined(\r\n        uint256 index,\r\n        address indexed supplier,\r\n        address indexed delCompany\r\n    );\r\n\r\n    modifier onlyOrderDelCompany(uint256 _index){\r\n        require(orders[_index].delCompany == msg.sender);\r\n        _; \r\n    }\r\n\r\n    modifier onlyCustomer(uint256 _index){\r\n        require(orders[_index].customer == msg.sender);\r\n        _;\r\n    }\r\n\r\n    modifier orderCreated(uint256 _index){\r\n        require(orders[_index].status == Status.Created);\r\n        _; \r\n    }\r\n\r\n    modifier orderDelivering(uint256 _index){\r\n        require(orders[_index].status == Status.Delivered);\r\n        _; \r\n    }\r\n\r\n    modifier orderDelivered(uint256 _index){\r\n        require(orders[_index].status == Status.Delivered);\r\n        _; \r\n    }\r\n\r\n    function getOrdersLength() public view returns (uint256){\r\n        return orders.length;\r\n    }\r\n\r\n    function getOrder(\r\n        uint256 _index\r\n    ) public view returns(string memory title, string memory desc, address, address, address, Status){\r\n        Order memory order = orders[_index];\r\n        return (\r\n            order.title, \r\n            order.desc, \r\n            order.supplier,\r\n            order.delCompany,\r\n            order.customer,\r\n            order.status\r\n        ); \r\n    }\r\n\r\n    function getSelfOrdersLength(\r\n        address _address\r\n    ) public view returns(uint256){\r\n        return selfOrders[_address].length;\r\n    }\r\n    function createOrder(\r\n        string memory _title,\r\n        string memory _desc,\r\n        address _delCompany,\r\n        address _customer\r\n    ) public returns (uint256){\r\n        Order memory order = Order({\r\n            title: _title,\r\n            desc: _desc,\r\n            supplier: msg.sender,\r\n            delCompany: _delCompany,\r\n            customer: _customer,\r\n            status: Status.Created\r\n        });\r\n        uint256 index = orders.length;\r\n        emit OrderCreated(orders.length, _delCompany, _customer);\r\n        orders.push(order);\r\n        selfOrders[msg.sender].push(index);\r\n        selfOrders[_delCompany].push(index);\r\n        selfOrders[_customer].push(index);\r\n    }\r\n\r\n    function startDeliveringOrder(\r\n        uint256 _index\r\n    ) public onlyOrderDelCompany(_index) orderCreated(_index){\r\n        Order storage order = orders[_index];\r\n        emit OrderDelivering(_index, order.supplier, order.customer);\r\n        order.status = Status.Delivering;\r\n    }\r\n\r\n    function stopDeliveringOrder(\r\n        uint256 _index\r\n    ) public onlyOrderDelCompany(_index){\r\n        Order storage order = orders[_index];\r\n        emit OrderDelivered(_index, order.supplier, order.customer);\r\n        order.status = Status.Delivered;\r\n    }\r\n\r\n    function acceptOrder(\r\n        uint256 _index\r\n    ) public onlyCustomer(_index) orderDelivered(_index){\r\n        Order storage order = orders[_index];\r\n        emit OrderAccepted(_index, order.supplier, order.delCompany);\r\n        orders[_index].status = Status.Accepted;\r\n    }\r\n\r\n    function declineOrder(\r\n        uint256 _index\r\n    ) public onlyCustomer(_index) orderDelivered(_index){\r\n         Order storage order = orders[_index];\r\n        emit OrderDeclined(_index, order.supplier, order.delCompany);\r\n        orders[_index].status = Status.Declined;\r\n    }\r\n}",
  "sourcePath": "C:\\Users\\Admin\\Desktop\\supplyChain\\ethereum\\contracts\\SupplyChain.sol",
  "compiler": {
    "name": "solc",
    "version": "0.8.17+commit.8df45f5f.Emscripten.clang"
  },
  "schemaVersion": "3.4.11",
  "updatedAt": "2023-01-26T14:57:46.549Z",
  "networkType": "ethereum",
  "devdoc": {
    "kind": "dev",
    "methods": {},
    "version": 1
  },
  "userdoc": {
    "kind": "user",
    "methods": {},
    "version": 1
  }
}